{
  "contractName": "PreSale",
  "abi": [
    {
      "inputs": [
        {
          "internalType": "address",
          "name": "_tokenAddress",
          "type": "address"
        }
      ],
      "stateMutability": "nonpayable",
      "type": "constructor"
    },
    {
      "anonymous": false,
      "inputs": [
        {
          "indexed": true,
          "internalType": "address",
          "name": "_from",
          "type": "address"
        },
        {
          "indexed": true,
          "internalType": "address",
          "name": "_to",
          "type": "address"
        }
      ],
      "name": "OwnershipTransferred",
      "type": "event"
    },
    {
      "inputs": [],
      "name": "owner",
      "outputs": [
        {
          "internalType": "address payable",
          "name": "",
          "type": "address"
        }
      ],
      "stateMutability": "view",
      "type": "function",
      "constant": true
    },
    {
      "inputs": [],
      "name": "purchasedTokens",
      "outputs": [
        {
          "internalType": "uint256",
          "name": "",
          "type": "uint256"
        }
      ],
      "stateMutability": "view",
      "type": "function",
      "constant": true
    },
    {
      "inputs": [
        {
          "internalType": "address payable",
          "name": "_newOwner",
          "type": "address"
        }
      ],
      "name": "transferOwnership",
      "outputs": [],
      "stateMutability": "nonpayable",
      "type": "function"
    },
    {
      "stateMutability": "payable",
      "type": "receive",
      "payable": true
    },
    {
      "inputs": [],
      "name": "Invest",
      "outputs": [],
      "stateMutability": "payable",
      "type": "function",
      "payable": true
    },
    {
      "inputs": [],
      "name": "ClaimTokens",
      "outputs": [
        {
          "internalType": "bool",
          "name": "",
          "type": "bool"
        }
      ],
      "stateMutability": "nonpayable",
      "type": "function"
    },
    {
      "inputs": [],
      "name": "getUnSoldTokens",
      "outputs": [],
      "stateMutability": "nonpayable",
      "type": "function"
    }
  ],
  "bytecode": "0x608060405263601af2b06002556360242d306003556360243b4060045534801561002857600080fd5b50604051610d9c380380610d9c8339818101604052602081101561004b57600080fd5b8101908080519060200190929190505050336000806101000a81548173ffffffffffffffffffffffffffffffffffffffff021916908373ffffffffffffffffffffffffffffffffffffffff16021790555080600160006101000a81548173ffffffffffffffffffffffffffffffffffffffff021916908373ffffffffffffffffffffffffffffffffffffffff16021790555050610caf806100ed6000396000f3fe6080604052600436106100595760003560e01c8063059719121461006d5780638d18c4aa146100985780638da5cb5b146100af578063a1d915b814610106578063c081996114610135578063f2fde38b1461013f57610068565b3661006857610066610190565b005b600080fd5b34801561007957600080fd5b506100826102db565b6040518082815260200191505060405180910390f35b3480156100a457600080fd5b506100ad6102e1565b005b3480156100bb57600080fd5b506100c4610703565b604051808273ffffffffffffffffffffffffffffffffffffffff1673ffffffffffffffffffffffffffffffffffffffff16815260200191505060405180910390f35b34801561011257600080fd5b5061011b610728565b604051808215151515815260200191505060405180910390f35b61013d610190565b005b34801561014b57600080fd5b5061018e6004803603602081101561016257600080fd5b81019080803573ffffffffffffffffffffffffffffffffffffffff1690602001909291905050506109d5565b005b600254421180156101a2575060035442105b610214576040517f08c379a000000000000000000000000000000000000000000000000000000000815260040180806020018281038252600e8152602001807f53616c6520697320636c6f73656400000000000000000000000000000000000081525060200191505060405180910390fd5b600061021f34610b34565b905080600660003373ffffffffffffffffffffffffffffffffffffffff1673ffffffffffffffffffffffffffffffffffffffff1681526020019081526020016000208190555080600554016005819055506000809054906101000a900473ffffffffffffffffffffffffffffffffffffffff1673ffffffffffffffffffffffffffffffffffffffff166108fc349081150290604051600060405180830381858888f193505050501580156102d7573d6000803e3d6000fd5b5050565b60055481565b6000809054906101000a900473ffffffffffffffffffffffffffffffffffffffff1673ffffffffffffffffffffffffffffffffffffffff163373ffffffffffffffffffffffffffffffffffffffff16146103a3576040517f08c379a00000000000000000000000000000000000000000000000000000000081526004018080602001828103825260158152602001807f4f6e6c7920616c6c6f776564206279206f776e6572000000000000000000000081525060200191505060405180910390fd5b600354421161041a576040517f08c379a00000000000000000000000000000000000000000000000000000000081526004018080602001828103825260128152602001807f73616c65206973206e6f7420636c6f736564000000000000000000000000000081525060200191505060405180910390fd5b6000600160009054906101000a900473ffffffffffffffffffffffffffffffffffffffff1673ffffffffffffffffffffffffffffffffffffffff166370a08231306040518263ffffffff1660e01b8152600401808273ffffffffffffffffffffffffffffffffffffffff1673ffffffffffffffffffffffffffffffffffffffff16815260200191505060206040518083038186803b1580156104bb57600080fd5b505afa1580156104cf573d6000803e3d6000fd5b505050506040513d60208110156104e557600080fd5b81019080805190602001909291905050509050600554811161056f576040517f08c379a000000000000000000000000000000000000000000000000000000000815260040180806020018281038252601c8152602001807f6e6f20756e736f6c6420746f6b656e7320696e20636f6e74726163740000000081525060200191505060405180910390fd5b600061058660055483610b6f90919063ffffffff16565b9050600160009054906101000a900473ffffffffffffffffffffffffffffffffffffffff1673ffffffffffffffffffffffffffffffffffffffff1663a9059cbb6000809054906101000a900473ffffffffffffffffffffffffffffffffffffffff16836040518363ffffffff1660e01b8152600401808373ffffffffffffffffffffffffffffffffffffffff1673ffffffffffffffffffffffffffffffffffffffff16815260200182815260200192505050602060405180830381600087803b15801561065257600080fd5b505af1158015610666573d6000803e3d6000fd5b505050506040513d602081101561067c57600080fd5b81019080805190602001909291905050506106ff576040517f08c379a00000000000000000000000000000000000000000000000000000000081526004018080602001828103825260188152602001807f7472616e73666572206f6620746f6b656e206661696c6564000000000000000081525060200191505060405180910390fd5b5050565b6000809054906101000a900473ffffffffffffffffffffffffffffffffffffffff1681565b60006004544210156107a2576040517f08c379a000000000000000000000000000000000000000000000000000000000815260040180806020018281038252601c8152602001807f546f6b656e20636c61696d2064617465206e6f7420726561636865640000000081525060200191505060405180910390fd5b6000600660003373ffffffffffffffffffffffffffffffffffffffff1673ffffffffffffffffffffffffffffffffffffffff1681526020019081526020016000205411610857576040517f08c379a000000000000000000000000000000000000000000000000000000000815260040180806020018281038252600f8152602001807f4e6f7420616e20696e766573746f72000000000000000000000000000000000081525060200191505060405180910390fd5b6000600660003373ffffffffffffffffffffffffffffffffffffffff1673ffffffffffffffffffffffffffffffffffffffff1681526020019081526020016000205490506000600660003373ffffffffffffffffffffffffffffffffffffffff1673ffffffffffffffffffffffffffffffffffffffff16815260200190815260200160002081905550600160009054906101000a900473ffffffffffffffffffffffffffffffffffffffff1673ffffffffffffffffffffffffffffffffffffffff1663a9059cbb33836040518363ffffffff1660e01b8152600401808373ffffffffffffffffffffffffffffffffffffffff1673ffffffffffffffffffffffffffffffffffffffff16815260200182815260200192505050602060405180830381600087803b15801561098957600080fd5b505af115801561099d573d6000803e3d6000fd5b505050506040513d60208110156109b357600080fd5b81019080805190602001909291905050506109cd57600080fd5b600191505090565b6000809054906101000a900473ffffffffffffffffffffffffffffffffffffffff1673ffffffffffffffffffffffffffffffffffffffff163373ffffffffffffffffffffffffffffffffffffffff1614610a97576040517f08c379a00000000000000000000000000000000000000000000000000000000081526004018080602001828103825260158152602001807f4f6e6c7920616c6c6f776564206279206f776e6572000000000000000000000081525060200191505060405180910390fd5b806000806101000a81548173ffffffffffffffffffffffffffffffffffffffff021916908373ffffffffffffffffffffffffffffffffffffffff1602179055508073ffffffffffffffffffffffffffffffffffffffff163373ffffffffffffffffffffffffffffffffffffffff167f8be0079c531659141344cd1fd0a4f28419497f9722a3daafe3b4186f6b6457e060405160405180910390a350565b600080600090506203f480600254014211610b50576064830290505b6203f48060025401421115610b66576050830290505b80915050919050565b6000610bb183836040518060400160405280601e81526020017f536166654d6174683a207375627472616374696f6e206f766572666c6f770000815250610bb9565b905092915050565b6000838311158290610c66576040517f08c379a00000000000000000000000000000000000000000000000000000000081526004018080602001828103825283818151815260200191508051906020019080838360005b83811015610c2b578082015181840152602081019050610c10565b50505050905090810190601f168015610c585780820380516001836020036101000a031916815260200191505b509250505060405180910390fd5b506000838503905080915050939250505056fea2646970667358221220df42f78179bb66c8fbd975c90aac1491c0acf8f77666f6b42fa1e7bfdec910d764736f6c63430006000033",
  "source": "pragma solidity ^0.6.0;\n\n// SPDX-License-Identifier: UNLICENSED\n\n/**\n * @dev Wrappers over Solidity's arithmetic operations with added overflow\n * checks.\n *\n * Arithmetic operations in Solidity wrap on overflow. This can easily result\n * in bugs, because programmers usually assume that an overflow raises an\n * error, which is the standard behavior in high level programming languages.\n * `SafeMath` restores this intuition by reverting the transaction when an\n * operation overflows.\n *\n * Using this library instead of the unchecked operations eliminates an entire\n * class of bugs, so it's recommended to use it always.\n */\nlibrary SafeMath {\n    /**\n     * @dev Returns the addition of two unsigned integers, reverting on\n     * overflow.\n     *\n     * Counterpart to Solidity's `+` operator.\n     *\n     * Requirements:\n     *\n     * - Addition cannot overflow.\n     */\n    function add(uint256 a, uint256 b) internal pure returns (uint256) {\n        uint256 c = a + b;\n        require(c >= a, \"SafeMath: addition overflow\");\n\n        return c;\n    }\n\n    /**\n     * @dev Returns the subtraction of two unsigned integers, reverting on\n     * overflow (when the result is negative).\n     *\n     * Counterpart to Solidity's `-` operator.\n     *\n     * Requirements:\n     *\n     * - Subtraction cannot overflow.\n     */\n    function sub(uint256 a, uint256 b) internal pure returns (uint256) {\n        return sub(a, b, \"SafeMath: subtraction overflow\");\n    }\n\n    /**\n     * @dev Returns the subtraction of two unsigned integers, reverting with custom message on\n     * overflow (when the result is negative).\n     *\n     * Counterpart to Solidity's `-` operator.\n     *\n     * Requirements:\n     *\n     * - Subtraction cannot overflow.\n     */\n    function sub(uint256 a, uint256 b, string memory errorMessage) internal pure returns (uint256) {\n        require(b <= a, errorMessage);\n        uint256 c = a - b;\n\n        return c;\n    }\n\n    /**\n     * @dev Returns the multiplication of two unsigned integers, reverting on\n     * overflow.\n     *\n     * Counterpart to Solidity's `*` operator.\n     *\n     * Requirements:\n     *\n     * - Multiplication cannot overflow.\n     */\n    function mul(uint256 a, uint256 b) internal pure returns (uint256) {\n        // Gas optimization: this is cheaper than requiring 'a' not being zero, but the\n        // benefit is lost if 'b' is also tested.\n        // See: https://github.com/OpenZeppelin/openzeppelin-contracts/pull/522\n        if (a == 0) {\n            return 0;\n        }\n\n        uint256 c = a * b;\n        require(c / a == b, \"SafeMath: multiplication overflow\");\n\n        return c;\n    }\n\n    /**\n     * @dev Returns the integer division of two unsigned integers. Reverts on\n     * division by zero. The result is rounded towards zero.\n     *\n     * Counterpart to Solidity's `/` operator. Note: this function uses a\n     * `revert` opcode (which leaves remaining gas untouched) while Solidity\n     * uses an invalid opcode to revert (consuming all remaining gas).\n     *\n     * Requirements:\n     *\n     * - The divisor cannot be zero.\n     */\n    function div(uint256 a, uint256 b) internal pure returns (uint256) {\n        return div(a, b, \"SafeMath: division by zero\");\n    }\n\n    /**\n     * @dev Returns the integer division of two unsigned integers. Reverts with custom message on\n     * division by zero. The result is rounded towards zero.\n     *\n     * Counterpart to Solidity's `/` operator. Note: this function uses a\n     * `revert` opcode (which leaves remaining gas untouched) while Solidity\n     * uses an invalid opcode to revert (consuming all remaining gas).\n     *\n     * Requirements:\n     *\n     * - The divisor cannot be zero.\n     */\n    function div(uint256 a, uint256 b, string memory errorMessage) internal pure returns (uint256) {\n        require(b > 0, errorMessage);\n        uint256 c = a / b;\n        // assert(a == b * c + a % b); // There is no case in which this doesn't hold\n\n        return c;\n    }\n\n    /**\n     * @dev Returns the remainder of dividing two unsigned integers. (unsigned integer modulo),\n     * Reverts when dividing by zero.\n     *\n     * Counterpart to Solidity's `%` operator. This function uses a `revert`\n     * opcode (which leaves remaining gas untouched) while Solidity uses an\n     * invalid opcode to revert (consuming all remaining gas).\n     *\n     * Requirements:\n     *\n     * - The divisor cannot be zero.\n     */\n    function mod(uint256 a, uint256 b) internal pure returns (uint256) {\n        return mod(a, b, \"SafeMath: modulo by zero\");\n    }\n\n    /**\n     * @dev Returns the remainder of dividing two unsigned integers. (unsigned integer modulo),\n     * Reverts with custom message when dividing by zero.\n     *\n     * Counterpart to Solidity's `%` operator. This function uses a `revert`\n     * opcode (which leaves remaining gas untouched) while Solidity uses an\n     * invalid opcode to revert (consuming all remaining gas).\n     *\n     * Requirements:\n     *\n     * - The divisor cannot be zero.\n     */\n    function mod(uint256 a, uint256 b, string memory errorMessage) internal pure returns (uint256) {\n        require(b != 0, errorMessage);\n        return a % b;\n    }\n\n    function ceil(uint256 a, uint256 m) internal pure returns (uint256 r) {\n        require(m != 0, \"SafeMath: to ceil number shall not be zero\");\n        return (a + m - 1) / m * m;\n    }\n}\n\n// ----------------------------------------------------------------------------\n// Owned contract\n// ----------------------------------------------------------------------------\ncontract Owned {\n    address payable public owner;\n\n    event OwnershipTransferred(address indexed _from, address indexed _to);\n\n    constructor() public {\n        owner = msg.sender;\n    }\n\n    modifier onlyOwner {\n        require(msg.sender == owner, \"Only allowed by owner\");\n        _;\n    }\n\n    function transferOwnership(address payable _newOwner) public onlyOwner {\n        owner = _newOwner;\n        emit OwnershipTransferred(msg.sender, _newOwner);\n    }\n}\n\n// ----------------------------------------------------------------------------\n// ERC Token Standard #20 Interface\n// https://github.com/ethereum/EIPs/blob/master/EIPS/eip-20-token-standard.md\n// ----------------------------------------------------------------------------\n/**\n * @dev Interface of the ERC20 standard as defined in the EIP.\n */\ninterface IERC20 {\n    function transfer(address recipient, uint256 amount) external returns (bool);\n    function balanceOf(address account) external view returns (uint256);\n}\n\ncontract PreSale is Owned {\n    using SafeMath for uint256;\n    \n    address tokenAddress;\n    uint256 startSale = 1612378800; // 3 Feb 2021, 7pm GMT\n    uint256 endSale = 1612983600; // 10 Feb 2021, 7pm GMT\n    uint256 claimDate = 1612987200; // 10 Feb 2021, 8pm GMT\n    uint256 public purchasedTokens;\n    \n    mapping(address => uint256) investor;\n\n    constructor(address _tokenAddress) public {\n        tokenAddress = _tokenAddress;\n    }\n    \n    receive() external payable{\n        Invest();\n    }\n    \n    function Invest() public payable{\n        require( now > startSale && now < endSale , \"Sale is closed\");\n        uint256 tokens = getTokenAmount(msg.value);\n        investor[msg.sender] = tokens;\n        purchasedTokens = purchasedTokens + tokens;\n        owner.transfer(msg.value);\n    }\n\n    function getTokenAmount(uint256 amount) internal view returns(uint256){\n        uint256 _tokens = 0;\n        if (now <= startSale + 3 days){\n            _tokens = amount * 100;\n        }\n        if (now > startSale + 3 days){\n            _tokens = amount * 80;\n        }\n        return _tokens;\n    }\n\n    function ClaimTokens() external returns(bool){\n        require(now >= claimDate, \"Token claim date not reached\");\n        require(investor[msg.sender] > 0, \"Not an investor\");\n        uint256 tokens = investor[msg.sender];\n        investor[msg.sender] = 0;\n        require(IERC20(tokenAddress).transfer(msg.sender, tokens));\n        return true;\n    }\n    \n    function getUnSoldTokens() onlyOwner external{\n        require(block.timestamp > endSale, \"sale is not closed\");\n        // check unsold tokens\n        uint256 tokensInContract = IERC20(tokenAddress).balanceOf(address(this));\n        require(tokensInContract > purchasedTokens, \"no unsold tokens in contract\");\n        uint256 unSoldTokens = tokensInContract.sub(purchasedTokens);\n        require(IERC20(tokenAddress).transfer(owner, unSoldTokens), \"transfer of token failed\");\n    }\n}\n",
  "sourcePath": "/home/zaryab/blockchain_begins/all_about_ethereum/quillHash_CODES/infinityYield/contracts/PreSale.sol",
  "compiler": {
    "name": "solc",
    "version": "0.6.0+commit.26b70077.Emscripten.clang"
  },
  "schemaVersion": "3.3.3",
  "updatedAt": "2021-01-25T15:54:43.543Z",
  "networkType": "ethereum",
  "devdoc": {
    "methods": {}
  },
  "userdoc": {
    "methods": {}
  }
}